:020000040800F2
:1000000000000220A50D00082D0D00082F0D00088E
:10001000310D0008330D0008350D00080000000008
:100020000000000000000000000000001134000883
:10003000370D000800000000A1340008390D000849
:10004000F50D0008F50D0008F50D0008F50D000888
:10005000F50D0008F50D0008F50D0008F50D000878
:10006000F50D0008F50D0008F50D0008F50D000868
:10007000F50D0008F50D0008F50D0008F50D000858
:10008000F50D0008F50D0008F50D0008F50D000848
:10009000F50D0008F50D0008F50D0008F50D000838
:1000A000F50D0008F50D0008F50D0008F50D000828
:1000B000F50D0008F50D0008F50D0008F50D000818
:1000C000F50D0008F50D0008F50D0008F50D000808
:1000D000F50D0008F50D0008F50D0008F50D0008F8
:1000E000F50D0008F50D0008F50D0008F50D0008E8
:1000F000F50D0008F50D0008F50D0008F50D0008D8
:10010000F50D0008F50D0008F50D0008F50D0008C7
:10011000F50D0008F50D0008F50D0008F50D0008B7
:10012000F50D0008F50D0008F50D0008F50D0008A7
:10013000F50D0008F50D0008F50D0008F50D000897
:10014000F50D0008F50D0008F50D0008F50D000887
:10015000F50D0008F50D0008F50D0008F50D000877
:10016000F50D0008F50D0008F50D0008F50D000867
:10017000F50D0008F50D0008F50D00080000000061
:08018000F50D0008F50D000863
:1001900010B5054C237833B9044B13B10448AFF3C1
:1001A00000800123237010BD7400002000000000B7
:1001B0005444000808B5034B1BB103490348AFF38F
:1001C000008008BD000000007800002054440008B2
:1001D00001F0FF01102A2BDB10F0070F08D010F8F8
:1001E000013B013A8B422DD010F0070F42B3F6D1FC
:1001F000F0B441EA012141EA014122F007047FF015
:1002000000070023F0E80256083C85EA010586EA6B
:10021000010685FA47F5A3FA87F586FA47F6A5FAA7
:1002200087F68EB9EED1F0BC01F0FF0102F00702B3
:1002300032B110F8013B013A83EA010313B1F8D15E
:100240000020704701387047002D06BF354603383F
:10025000073815F0010F07D1013015F4807F02BF78
:10026000013015F4C03F0130F0BC0138704700BFC9
:1002700053B94AB9002908BF00281CBF4FF0FF310D
:100280004FF0FF3000F06EB9ADF1080C6DE904CE0F
:1002900000F006F8DDF804E0DDE9022304B0704761
:1002A0002DE9F047089D04468C46002B40F08380E2
:1002B0008A42174647D9B2FA82F242B1C2F120000F
:1002C00024FA00F09140974040EA010C94404FEA34
:1002D0001748230CBCFBF8F61FFA87FE08FB16C173
:1002E00043EA014306FB0EF1994209D9FB1806F1D6
:1002F000FF3080F01981994240F21681023E3B4462
:100300005B1AA4B2B3FBF8F008FB103344EA0344D1
:1003100000FB0EFEA64509D93C1900F1FF3380F021
:100320000581A64540F2028102383C4440EA06407D
:10033000A4EB0E0400261DB1D4400023C5E9004300
:100340003146BDE8F08702B9FFDEB2FA82F2002A38
:1003500050D1CB1B4FEA174E1FFA87F80126B3FB8B
:10036000FEFC210C0EFB1C3341EA034108FB0CF39D
:100370008B4207D979180CF1FF3002D28B4200F280
:10038000E9808446C91AA3B2B1FBFEF00EFB10113E
:1003900043EA014408FB00F8A04507D93C1900F1E5
:1003A000FF3302D2A04500F2D9801846A4EB08041E
:1003B00040EA0C40BFE78B4209D9002D00F0B18024
:1003C0000026C5E9000130463146BDE8F087B3FAA2
:1003D00083F6002E4AD18B4202D3824200F2B880CB
:1003E000841A61EB030101208C46002DA8D0C5E9D9
:1003F000004CA5E7C2F1200320FA03F6974001FA6A
:1004000002F04FEA174ED9403043030CB1FBFEF621
:100410001FFA87F80EFB161143EA014306FB08F1A9
:10042000994204FA02F409D9FB1806F1FF3C80F066
:100430008D80994240F28A80023E3B445B1A81B231
:10044000B3FBFEF00EFB103341EA034100FB08F35F
:100450008B4207D9791800F1FF3C73D28B4271D9D6
:1004600002383944CB1A40EA064678E7C6F1200C38
:1004700003FA06F422FA0CF31C4320FA0CF701FAF3
:1004800006F34FEA144E21FA0CF11F433B0CB1FB6B
:10049000FEF91FFA84F80EFB191143EA014109FB2A
:1004A00008FA8A4502FA06F200FA06F308D961183A
:1004B00009F1FF3048D28A4546D9A9F10209214401
:1004C000A1EB0A01BFB2B1FBFEF00EFB101147EA2F
:1004D000014700FB08F8B84507D9E71900F1FF31DB
:1004E0002ED2B8452CD90238274440EA0940A7EB60
:1004F0000807A0FB02894F45C64649461AD317D0C4
:100500005DB1B3EB0E0267EB010707FA0CFCF2409A
:100510004CEA0202F740C5E9002700263146BDE853
:10052000F0872E4628460BE70646E9E61846FDE624
:100530004345E5D2B8EB020E69EB04010138DFE771
:100540000846D2E760468DE78146B9E7664675E71B
:1005500030464AE7ACF1020C394413E702383C4418
:1005600024E700BF704700BF08B5012001F0FBFC85
:10057000FBE70000F8B51E4C1E4D0C21204601F093
:1005800017FC23684A271F644FF4FA7001F0EBFC54
:10059000236878221A640021284601F009FC04210E
:1005A000284601F005FC14480122042100F0BCFD9E
:1005B00011480122202100F0B7FD0F480022082138
:1005C00000F0B2FD0C480022102100F0ADFD2B68B8
:1005D000002641F270725E6340F28A209A6301F055
:1005E000C2FC2B685E639E6323681F64F8BD00BF76
:1005F000484A0020AC490020000002402DE9F04F9D
:100600003C4E3D4D3D4F8BB00021304601F0B3F8DC
:100610000021284601F0AFF82B685C6A3368D3F8F4
:1006200024A000F033FC07F10D08834600F02EFCF7
:10063000A0EB0B00B0F57A7FF8D93268536A1268E4
:10064000D2063FD59A4538DDAAEB030329684A6AEA
:100650000968C90645D594423EDDA41A4FF03C0A0C
:100660004FF4A57B4FF47A723946B0FBF2F905A836
:10067000B3FBF9F3B3FBFBF20AFB02F203F0CAFA95
:1006800005AA14210A2003F0DDF9B4FBF9F2B2FB4C
:10069000FBF241460AFB02F2684603F0BBFA6A46E7
:1006A0001E210A2003F0CEF93368D3F824A02B686A
:1006B0005C6A00F0EBFB8346B8E7C3F57F43FF338A
:1006C0005344C3E79A4502DAA3EB0A03BEE7CAF52F
:1006D0007F4A0AF1FF0AF3E7C2F57F42FF32144472
:1006E000BCE7944201DA141BB8E7C4F57F44FF3439
:1006F000F5E700BF904A0020004A00206C44000843
:100700007FB5114B01AC03F1080226461868596801
:10071000254603C5083393422C46F7D118689B88B9
:10072000AB8000232860CDF81230ADF816300A21D6
:100730000846324603F086F903F0E8F84FF47A7081
:1007400001F011FCF3E700BF8644000800B595B046
:100750002C22002109A803F055FA1422002103A835
:1007600003F050FA0023194A0193116C41F08051B3
:100770001164126C02F080520192019A144A0293A1
:10078000116841F48041116012680E9302F48042B6
:100790000292029A0222089201201022CDE90B0255
:1007A00008A800F0E3FC014608B172B6FEE70F238B
:1007B000CDE90330CDE90500079003A800F0B0FEB5
:1007C00008B172B6FEE715B05DF804FB00380240D0
:1007D0000070004080B59AB000F032FBFFF7B6FF22
:1007E0001422002111A803F00DFA0024A64B009456
:1007F0001A6BA648A64D42F010021A631A6B02F05B
:1008000010020092009A01941A6B42F001021A63DE
:100810001A6B02F001020192019A02941A6B42F0E3
:1008200004021A631A6B02F004020292029A039401
:100830001A6B42F002021A631B6B03F0020303936C
:1008400022464FF4F071039B00F06EFC2246914863
:100850003C2100F069FC01264FF4F0738B4811A98C
:10086000CDE91136CDE9134400F084FB0C23CDE92A
:10087000113688481394022311A9149300F07AFBCF
:100880003023844811A9CDE91136CDE9134400F095
:1008900071FB1022214606A803F0B4F91C22214660
:1008A0000AA8CDE9044403F0ADF92022214611A89D
:1008B00003F0A8F9784BAC6041F61F472846C5E91C
:1008C0000034C5E90374C5E9054401F015F808B121
:1008D00072B6FEE74FF4805306A92846069301F04E
:1008E00057F908B172B6FEE7284601F031F808B1B1
:1008F00072B6FEE7CDE9040004A9284601F05AFAD1
:10090000024608B172B6FEE76023CDE90A30CDE9B0
:100910000C00CDE90E0010900AA9284601F0D0F88D
:1009200008B172B6FEE704220AA9284601F0C8F809
:1009300008B172B6FEE7CDE91100CDE913001590BC
:100940004FF40053189011A92846169301F070FA3D
:1009500008B172B6FEE7514C19904FF08043C4E9DC
:1009600000304FF0FF33CDE90A00C4E90330CDE990
:100970001160CDE91360CDE91500CDE91760A060E5
:10098000A06111A9204601F00FF808B172B6FEE788
:10099000CDE90A000AA9204601F00CFA08B172B6A6
:1009A000FEE73F4B3F4A1861CDE90A00C3E900204A
:1009B000C3E90207CDE91160CDE91360CDE9150067
:1009C000CDE917609861199011A9184600F0ECFF65
:1009D00008B172B6FEE7002331480AA9CDE90A330F
:1009E00001F0E8F9054608B172B6FEE701461022AB
:1009F00006A803F007F91C2229460AA8CDE90455E8
:100A000003F000F92022294611A803F0FBF8264C38
:100A1000264AA5604FF4A073C4E900234FF47A730B
:100A2000C4E90335204680236561A36100F064FFBB
:100A300008B172B6FEE74FF4805306A9204606932C
:100A400001F0A6F808B172B6FEE7204600F080FF7C
:100A500008B172B6FEE7CDE9040004A9204601F012
:100A6000A9F908B172B6FEE76023CDE90A30CDE9F5
:100A70000E000C9010900C220AA9204601F020F8DC
:100A8000B0B172B6FEE700BF00380240001002406D
:100A9000AC4900200000024000040140904A0020C0
:100AA000004A002000040040484A002000000140A5
:100AB000CDE91100CDE9130015904FF400531890C3
:100AC00011A92046169301F0B3F9044608B172B695
:100AD000FEE702F0D7FF01F0D1F90F4A0F48214697
:100AE00001F0F8F90E4B0F4A186021460E4801F04C
:100AF000F1F90E4B0E4A186021460E4801F0EAF952
:100B00000D4B0E4A186021460D4801F0E3F90D4BDC
:100B1000186001F0C5F9FEE73445000869050008D2
:100B2000A8490020EC44000875050008F849002099
:100B3000C8440008FD050008FC49002010450008D5
:100B400001070008F449002082B00E4B00220092F9
:100B5000596C41F480415964596C01F48041009111
:100B600000990192196C41F0805119641B6C03F0DB
:100B700080530193019B0F216FF0010002B000F040
:100B8000B1B900BF0038024010B514228AB0044643
:100B900000210DEB020003F035F82368254A93424B
:100BA00024D1254B00220192596C41F00101596476
:100BB000596C01F00101019101990292196B41F008
:100BC000100119631B6B03F0100302934FF4804074
:100BD000029BCDE907220223CDE905030123174833
:100BE000099305A900F0C6F90AB010BD144A934252
:100BF000FAD1114B134800220392596C41F00201C3
:100C00005964596C01F00201039103990492196B24
:100C100041F0040119631B6B03F004030493C0212A
:100C2000049B0223CDE905130323CDE90722099391
:100C300005A9D7E70000014000380240001002403B
:100C4000000401400008024070B514228AB0044636
:100C500000210DEB020002F0D5FF2368B3F1804FB5
:100C600039D103F50E33002400941A6C2B4842F05E
:100C700001021A641A6C02F001020092009A0194B7
:100C80001A6B42F001021A631A6B02F00102019220
:100C9000019A02941A6B42F002021A631B6B03F072
:100CA00002030293029B02264FF40043012505A98B
:100CB000CDE90536CDE90744099500F05BF9082335
:100CC000CDE90536CDE907441548099505A900F099
:100CD00051F90AB070BD134A9342FAD1124B0F4832
:100CE00000220392196C41F002011964196C01F0A1
:100CF0000201039103990492196B41F001011963F8
:100D00001B6B03F001030493C021049B0223CDE974
:100D10000513CDE90722099305A9D8E70000024091
:100D2000000402400004004000380240FEE7FEE7F5
:100D3000FEE7FEE7FEE7704708B500F09BF802F01B
:100D4000D3F8012803D0BDE8084002F0DBBB08BDA2
:100D50000B4B196810B5024609B90A4919601868A1
:100D600009490A4C0244091B8A4206D902F012FFC3
:100D70000C2303604FF0FF3010BD1A60FCE700BF8A
:100D800090000020304F00200000022000040000EE
:100D9000034AD2F8883043F47003C2F888307047B1
:100DA00000ED00E0DFF834D00D480E490E4A002374
:100DB00002E0D458C4500433C4188C42F9D30B4A0F
:100DC0000B4C002301E013600432A242FBD3FFF777
:100DD000DFFF02F0E5FEFFF7FDFC70470000022098
:100DE000000000207400002024500008740000203F
:100DF0002C4F0020FEE7000038B50E4A0E4B05468A
:100E000018784FF47A73B3FBF0F31068B0FBF3F08B
:100E100000F09AF8044658B90F2D09D80246294621
:100E20004FF0FF3000F05EF8044B20461D6038BDE7
:100E30000120FCE700000020040000200800002042
:100E400008B50B4B1A6842F400721A601A6842F433
:100E500080621A601A6842F480721A60032000F0FF
:100E60002FF80F20FFF7C8FFFFF76EFE002008BD28
:100E7000003C0240034A044B11681B780B4413608A
:100E8000704700BFD84A002004000020014B1868BA
:100E9000704700BFD84A002038B50446FFF7F6FF78
:100EA000631C1CBF054B1B78054618BFE418FFF7F1
:100EB000EDFF431BA342FAD338BD00BF040000205E
:100EC0000749CA6822F4E0620302120403F4E063F3
:100ED000120C134343F0BF6343F40033CB607047FD
:100EE00000ED00E0164B30B5DC68C4F30224C4F119
:100EF0000705231D042D28BF0425062B4FF0FF33C3
:100F00008CBF033C002403FA05F521EA0501A34048
:100F100022EA0302A140002841EA0203ACBF00F12B
:100F20006040084A4FEA0313B8BF00F00F00DBB27D
:100F3000AABF00F56140135480F8003330BD00BFF4
:100F400000ED00E014ED00E00138B0F1807F0AD23E
:100F5000064B074A5860F02182F823100020072230
:100F600098601A6070470120704700BF10E000E0F1
:100F700000ED00E02DE9F74FDFF8A891674A002364
:100F80000D6801249C4004EA050CAC4340F0B1809C
:100F90004D6805F003044FEA43080326671E06FA6E
:100FA00008F6012F6FEA060634D8876807EA060EAE
:100FB000CF6807FA08F747EA0E078760476827EA0D
:100FC0000C0EC5F300179F4047EA0E074760C7683D
:100FD00007EA060E8F6807FA08F747EA0E07022CA1
:100FE000C76019D14FEAD30A00EB8A0A03F0070B56
:100FF000DAF820704FEA8B0B4FF00F0E0EFA0BFE53
:1010000027EA0E0E0F6907FA0BF747EA0E07CAF830
:10101000207001E0032CDAD1076804FA08F43E409E
:10102000264315F4403F066063D04FF0000ACDF828
:1010300004A0D9F844603A4C46F48046C9F84460AC
:10104000D9F8446006F480460196019E23F0030619
:1010500006F1804606F59C3603F0030ED6F80880AC
:101060004FEA8E0E0F2707FA0EF7A04228EA07076D
:1010700046D004F58064A04244D004F58064A042C8
:1010800042D004F58064A04240D004F58064A042C0
:101090003ED004F58064A0423CD004F58064A042B8
:1010A0003AD004F58064A0420CBF0724082404FA57
:1010B0000EF43C43B46014686FEA0C06EF0354BFAF
:1010C00034404CEA040414605468AF0354BF344005
:1010D0004CEA040454609468EF0254BF34404CEA74
:1010E00004049460D468AD0254BF34404CEA040454
:1010F000D4600133102B7FF443AF03B0BDE8F08F11
:101100005446D4E70124D2E70224D0E70324CEE7F3
:101110000424CCE70524CAE70624C8E7003C0140C4
:1011200000000240003802400AB1816170470904A2
:10113000FBE70000044B01221A60044B82B01B68DD
:101140000193019B02B0704720000E4200700040E6
:10115000044B00221A60044B82B01B680193019B70
:1011600002B0704720000E42007000402DE9F341AC
:10117000044640B30368DD0710D4236898075ED4A3
:1011800023681A0700F1A08023685B0700F1BE8086
:10119000A069002840F01F8100202BE0A64B9A6830
:1011A00002F00C02042A07D09A6802F00C02082A06
:1011B0000BD15A68510208D59F4B1B689A03DCD5A6
:1011C0006368002BD9D1012014E06268B2F5803F3A
:1011D00013D11A6842F480321A60FFF757FE964E18
:1011E000054633689B03C8D4FFF750FE401B6428B4
:1011F000F7D9032002B0BDE8F0818F4DB2F5A02FE2
:101200002B6807D143F480232B602B6843F4803391
:101210002B60E2E723F480332B602B6823F48023D8
:101220002B60002AD9D1FFF731FE06462B689F03B9
:10123000A3D5FFF72BFE801B6428F7D9D9E77E4B97
:101240009A6812F00C0F07D09A6802F00C02082A74
:1012500011D15B685E020ED4774B1A68950702D5F0
:10126000E268012AAFD11A68216922F0F80242EA45
:10127000C1021A6084E7E268704BB2B101221A60C1
:10128000FFF704FE6C4D06462B68980707D52B68C0
:10129000226923F0F80343EAC2032B6070E7FFF7EB
:1012A000F5FD801B0228EFD9A3E71A60FFF7EEFDDA
:1012B000614E0546336899077FF562AFFFF7E6FD9B
:1012C000401B0228F6D994E762695D4B7AB101228E
:1012D0001A60FFF7DBFD584E0546736F9F073FF519
:1012E00053AFFFF7D3FD401B0228F6D981E71A6000
:1012F000FFF7CCFD504E0546736F98077FF544AF5E
:10130000FFF7C4FD401B0228F6D972E74A4B1A6C5E
:1013100012F0805228D101921A6C42F080521A6465
:101320001B6C03F080530193019B0127454D2B68F3
:10133000D9051BD5A368404D012B27D12B6F43F056
:1013400001032B67FFF7A2FD3B4E054641F28838AB
:10135000336F9B0739D5002F3FF41AAF364A136C11
:1013600023F08053136413E70027DFE72B6843F46F
:1013700080732B60FFF78AFD06462B68DA05D9D407
:10138000FFF784FD801B0228F7D932E7052B04D133
:101390002B6F43F004032B67D0E72A6F22F0010282
:1013A0002A672A6F22F004022A67002BCAD1FFF7AE
:1013B0006DFD41F2883806462B6F9807CBD5FFF7B5
:1013C00065FD801B4045F7D913E7FFF75FFD401B24
:1013D0004045BDD90DE7184DAB6803F00C03082B51
:1013E00047D0194E00230228336035D1FFF74EFD58
:1013F00007462B68990129D4D4E907321343626A5E
:1014000043EA8213E26A43EA0263A26A5208013A9B
:1014100043EA02436B6001233360FFF737FD064D5B
:1014200004462B689A013FF5B7AEFFF72FFD001B6E
:101430000228F6D9DDE600BF00380240000047422E
:10144000800E47420070004060004742FFF71EFDDB
:10145000C01B0228CDD9CCE6FFF718FD04462B6847
:101460009B017FF599AEFFF711FD001B0228F6D90D
:10147000BFE601283FF4BEAE6B68E26903F4800169
:1014800091427FF4A0AE216A03F03F028A427FF4CA
:101490009AAE616A47F6C0721A40B2EB811F7FF4C0
:1014A00092AEA26A520803F44031013AB1EB024F06
:1014B0007FF489AEE26A03F07063B3EB026F3FF42E
:1014C0006BAE80E6134908B58B6803F00C03042B60
:1014D0001CD0082B1CD14A684B68496813F4800360
:1014E00014BF0D480D48C1F3881118BF002302F046
:1014F0003F02A1FB0001FEF7BBFE064B5B68C3F396
:10150000014301335B00B0FBF3F008BD0248FCE788
:101510000248FAE70038024040787D010024F400D8
:101520002DE9F0410D46044610B90120BDE8F081D7
:10153000444B1A6802F007028A4228D322689707B0
:101540002DD4D00741D43F4B1A6802F00702AA42BB
:1015500066D8226851076CD4130707D53A4A216927
:10156000936823F4604343EAC1039360FFF7AAFF43
:10157000354B364A9B68C3F30313D35CD840344BD6
:101580001860344B1868FFF737FC0020CEE7CAB26A
:101590001A701B6803F007038B42C6D1CEE72A4BB3
:1015A00012F0040F1EBF996841F4E05199601607CC
:1015B00042BF996841F4604199602349A0688B68F3
:1015C00023F0F00303438B60BBE762681E4B012AE4
:1015D0001CD11B6813F4003FA7D01B4EB36823F047
:1015E00003031343B360FFF751FC41F28838074609
:1015F000B368626803F00C03B3EB820FA3D0FFF76C
:1016000045FCC01B4045F3D903208FE7911E0129FB
:101610001B6802D813F0007FDEE713F0020FDBE750
:10162000EAB21A701B6803F00703AB427FF47DAF88
:101630008FE70549E0688B6823F4E05303438B6030
:101640008AE700BF003C02400038024058450008CD
:101650000000002008000020036A23F00103036259
:10166000036A70B5446882690D6822F073022A43E8
:101670008D6823F002032B430E4DA84202D00E4E7C
:10168000B04210D1CE6823F008033343A84223F0C0
:10169000040302D0084DA84205D1D1E9055624F42F
:1016A000407435432C43446082614A68426303625C
:1016B00070BD00BF0000014000040140036A23F434
:1016C00080730362036A70B54468C2690D6822F0D2
:1016D00073022A438D6823F4007343EA0523114DF6
:1016E000A84203D005F58065A84214D1CD6823F443
:1016F000006343EA05230B4DA84223F4806303D023
:1017000005F58065A84206D1D1E9055624F4405478
:10171000354344EA05144460C2614A68C263036207
:1017200070BD00BF00000140036A23F480530362D0
:10173000036A30B54468C2690D6822F4E64242EAA1
:1017400005228D6823F4005343EA0533084DA8426F
:1017500003D005F58065A84204D14D6924F4804486
:1017600044EA85144460C2614A680264036230BD81
:1017700000000140704730B590F83E2090F83F30AF
:1017800090F8425090F84340D2B2DBB2EDB2E4B2EE
:10179000C9B9012A46D1012D46D1022380F83E3035
:1017A00080F8423003681A6A22F001021A621A6A4B
:1017B00042F001021A620268136843F001031360E9
:1017C0000023184630BD042911D1012B2AD1012C48
:1017D000F7D1022380F83F3080F8433003681A6A5B
:1017E00022F010021A621A6A42F01002E2E7012A9D
:1017F00018D1012B18D1012DE3D1012CE1D1022305
:1018000080F83E3080F83F3080F8423080F8433036
:1018100003681A6A22F001021A621A6A42F001028F
:101820001A62DCE70123CCE71346CAE7304A0368B3
:10183000904212D0B0F1804F0FD0A2F57C4290427E
:101840000BD002F58062904207D002F58062904290
:1018500003D002F57842904219D14A6823F0700310
:101860001343234A904229D0B0F1804F26D0A2F5ED
:101870007C42904222D002F5806290421ED002F556
:10188000806290421AD002F57842904216D0194AEE
:10189000904213D002F5806290420FD002F5806230
:1018A00090420BD0A2F59832904207D002F58062A8
:1018B000904203D002F58062904203D1CA6823F4BB
:1018C000407313434A6923F08003134303608B681A
:1018D000C3620B688362064B984203D003F58063B2
:1018E000984201D10B69036301234361704700BF34
:1018F000000001400040014010B5044630B390F8AC
:101900003D3003F0FF021BB980F83C20FFF73CF9A3
:101910000223206884F83D30211DFFF787FF012353
:1019200084F84630002084F83E3084F83F3084F854
:10193000403084F8413084F8423084F8433084F8F1
:10194000443084F8453084F83D3010BD0120FCE778
:1019500010B5044630B390F83D3003F0FF021BB9D8
:1019600080F83C20FFF706FF0223206884F83D3012
:10197000211DFFF75BFF012384F84630002084F827
:101980003E3084F83F3084F8403084F8413084F8A9
:10199000423084F8433084F8443084F8453084F889
:1019A0003D3010BD0120FCE7F8B50D460446002887
:1019B0004DD090F83D3003F0FF021BB980F83C2079
:1019C000FFF742F92146022384F83D3051F8040B19
:1019D000836823F4804323F007038360FFF726FF27
:1019E00020682B6886688269A968076A1E43AB690C
:1019F00022F4407222F0030241EA0323134323F44A
:101A00007C422B69E9691B0143EA0123E9680B4326
:101A1000296A22F0FC0243EA01331343696927F083
:101A2000AA026F68866047EA0117836117430123A2
:101A3000076284F84630002084F83E3084F83F3056
:101A400084F8423084F8433084F83D30F8BD0120FA
:101A5000FCE70000036A23F010030362036A70B519
:101A6000446882690D6822F4E64242EA05228D68E4
:101A700023F0200343EA0513104DA84203D005F5D7
:101A80008065A84214D1CD6823F0800343EA051392
:101A90000A4DA84223F0400303D005F58065A84213
:101AA00006D1D1E9055624F44064354344EA85045F
:101AB000446082614A688263036270BD0000014035
:101AC00070B590F83C30012B0546144654D00122E5
:101AD000082C80F83C203ED007D8CCB1042C29D06B
:101AE000002385F83C30104670BD0C2CF8D10068FE
:101AF000FFF71AFE2B680969DA6942F40062DA61BD
:101B0000DA6922F48062DA61DA6942EA012231E0BC
:101B10000068FFF7A1FD2B6809699A6942F0080285
:101B20009A619A6922F004029A619A690A439A6159
:101B30000022D5E70068FFF78DFF2B6809699A69D5
:101B400042F400629A619A6922F480629A619A6909
:101B500042EA0122EBE70068FFF7B0FD2B68096954
:101B6000DA6942F00802DA61DA6922F00402DA6125
:101B7000DA690A43DA61DBE70222B4E710B5846868
:101B8000114324F47F4441EA03232343836010BDBF
:101B900070B590F83C30012B04464FF0020300F082
:101BA0009180012280F83D3080F83C2000688368F5
:101BB00023F47F4323F0770383600B68602B52D0BC
:101BC00033D8402B67D016D8202B0DD00AD833F04D
:101BD000100109D0012384F83D30002384F83C3003
:101BE000104670BD302BF5D1826822F0700213438D
:101BF00043F0070317E0502BECD14A68CE68016A26
:101C0000056A25F001050562836921F00A0123F0C8
:101C1000F00343EA06130A4383610262836823F0F8
:101C2000700343F05703836011E0B3F5805F0ED07B
:101C3000B3F5005F0DD0702BCCD1CB68D1E9012179
:101C4000FFF79CFF2268936843F0770393600022BC
:101C5000C0E7CB68D1E90121FFF790FF22689368C4
:101C600043F48043F2E74D68CE68016A21F0100129
:101C700001628269036A22F4704223F0A00343EAFE
:101C8000051342EA063282610362836823F070031F
:101C900043F06703C7E74A68CE68016A056A25F022
:101CA00001050562836921F00A0123F0F00343EA8C
:101CB00006130A4383610262836823F0700343F0D2
:101CC0004703B0E71A468BE7036A01F01F0110B51E
:101CD00001248C4023EA04030362036A8A401A4306
:101CE000026210BD10B5044629B990F83E30012BB0
:101CF0001DD0012032E0042907D190F83F30012B9C
:101D0000F7D1022380F83F3014E0082907D190F87A
:101D10004030012BEDD1022380F840300AE090F8EA
:101D20004130012BE5D1022380F8413002E002234B
:101D300080F83E3001222068FFF7C6FF2368194A69
:101D400093420CD018498B4209D0B3F1804F0DD18A
:101D50009A6802F00702062A1FD1002010BD596CB4
:101D6000934241F400415964F2D0EEE70F4A9342A6
:101D7000EED002F580629342EAD002F5806293428F
:101D8000E6D002F578429342E2D002F570529342D7
:101D9000DED0A2F594329342DAD01A6842F0010202
:101DA0001A60DAE70000014000040140000400402E
:101DB000FFF798BF30B590F83C30012B4FF002038D
:101DC00032D080F83D3003680D685C689A6824F072
:101DD00070042C435C60154CA3421AD0B3F1804FC1
:101DE00017D0A4F57C44A34213D004F58064A34229
:101DF0000FD004F58064A3420BD004F57844A342CD
:101E000007D004F57054A34203D0A4F59434A34240
:101E100004D1496822F080020A439A60012380F8C5
:101E20003D30002380F83C30184630BD00000140B2
:101E300090F83C30012B1FD0CB688A6823F44073A4
:101E400013434A6823F4806313430A6823F400634E
:101E500013430A6923F4805313434A6923F400535C
:101E60001343CA6923F48043134302685364002375
:101E700080F83C301846704702207047EFF3058326
:101E80002BB9064B186828B901221A6070476FF009
:101E9000050070474FF0FF30704700BFF002002090
:101EA00010B5EFF305845CB9084B1A68012A0AD112
:101EB000074AD47702221A6000F090FD204610BD38
:101EC0006FF00500FBE74FF0FF30F8E7F00200206D
:101ED00000ED00E0F0B587B0144600220B460592F5
:101EE000EFF30582D2B9C8B1002C2FD0A569002D1F
:101EF00008BF1825691E3729AC462BD86168C90769
:101F000028D466696EB1B208D4E9027E216857B15F
:101F1000BEF15B0F02D9246904B1EEB9059807B090
:101F2000F0BD8022F0E7BEF1000FF7D12469002C4C
:101F3000F4D10C4605A9CDE900C192B2214600F0CA
:101F40001FFD01281CBF00230593E7E74FF0180C85
:101F50008022EFE71046E2E7CDE90147009500F067
:101F6000D7FC0590DAE710B5EFF3058424B910B17A
:101F700000F090FE204610BD6FF00500FBE700006A
:101F8000034B0360034B0B6080231360704700BF5B
:101F90009402002094000020034B0360034B0B606D
:101FA0004FF4807313607047F4060020F4020020A1
:101FB00000F108034FF0FF32C0E9022343600361E0
:101FC00000230360704700230361704743684B6040
:101FD0009A688A609A685160996003680861013361
:101FE0000360704730B50C68631C0AD103695A68F6
:101FF0004A6091608B605960036808610133036037
:1020000030BD00F10802134652681568A542FAD99E
:10201000EDE7D0E9011203698A6051605968814295
:1020200008BF5A60002202611A68013A1A601868F3
:10203000704710B5044601F0FDF9A46B01F01CFADD
:10204000B4FA84F0400910BDF8B51546026C866BF1
:10205000044652B9076847BB806800F055FFA76087
:1020600005460136A6632846F8BD65B9406801F00B
:10207000BBFD6368226C1344A26863609342F0D393
:1020800023686360EDE7C06801F0AEFD226CE36891
:1020900051429B1A2268E36093423EBFA3685B18DB
:1020A000E360022D01D116B1013E0025D9E7354686
:1020B000D7E7034610B41A6C08466AB1DC68996821
:1020C00014448C4228BF1968DC6028BFD960D968E5
:1020D0005DF8044B01F088BD5DF8044B704770B5A6
:1020E000044601F0A7F994F8455004F124066DB2B6
:1020F000002D14DCFF2384F8453001F0BDF901F018
:1021000099F994F8445004F110066DB2002D12DCD8
:10211000FF2384F84430BDE8704001F0ADB9636A34
:10212000002BE7D0304600F04DFE08B100F0D6FE9F
:10213000013D6DB2DCE72369002BE9D0304600F0A9
:1021400041FE08B100F0CAFE013D6DB2DEE70000BD
:1021500038B50D46044640B94FF0500383F311885B
:10216000BFF36F8FBFF34F8FFEE701F063F9D4E940
:102170000F31226862604B43D0185B1A1344A06091
:10218000E3600020FF23A06384F8443084F84530E6
:1021900095B9236963B104F1100000F013FE38B162
:1021A0000A4B4FF080521A60BFF34F8FBFF36F8F0F
:1021B00001F062F9012038BD04F11000FFF7F8FECC
:1021C00004F12400FFF7F4FEF2E700BF04ED00E0A5
:1021D00013B51C4640B94FF0500383F31188BFF389
:1021E0006F8FBFF34F8FFEE743B94FF0500383F378
:1021F0001188BFF36F8FBFF34F8FFEE74AB191B9DC
:102200004FF0500383F31188BFF36F8FBFF34F8FED
:10221000FEE741B14FF0500383F31188BFF36F8F96
:10222000BFF34F8FFEE750230193019B502B08D043
:102230004FF0500383F31188BFF36F8FBFF34F8FBD
:10224000FEE7002908BF2246019B22600123C4E962
:102250000F0184F8463019462046FFF779FF9DF8B4
:10226000103084F84C30204602B010BD2DE9FF47F5
:10227000884601921F46044640B94FF0500383F34D
:102280001188BFF36F8FBFF34F8FFEE751B9036C17
:1022900043B14FF0500383F31188BFF36F8FBFF347
:1022A0004F8FFEE7022F0BD1E36B012B08D04FF0CD
:1022B000500383F31188BFF36F8FBFF34F8FFEE797
:1022C00000F012FE064650B9019B4BB14FF050038F
:1022D00083F31188BFF36F8FBFF34F8FFEE70026A4
:1022E000DFF8E8A04FF0000937E0019D1DB901F0CB
:1022F000C3F8002050E016B902A800F0A7FD01F0D5
:10230000BBF800F0AFFB01F095F894F84430FF2BD8
:1023100008BF84F8449094F84530FF2B08BF84F838
:10232000459001F0A9F801A902A800F09BFD002842
:1023300046D101F07FF8A26BE36B9A422FD101F0F6
:102340009BF8019904F1100000F004FD2046FFF70E
:10235000C6FE00F02BFC50B3012601F06BF8A26B17
:10236000E36B9A4201D3022FBFD13A464146204641
:10237000FFF76AFE636A1BB104F1240000F022FD3E
:1023800038B1124B4FF080521A60BFF34F8FBFF33A
:102390006F8F01F071F8012004B0BDE8F08701F003
:1023A0006BF82046FFF79BFE00F000FCD4E74FF0EF
:1023B0008053CAF80030BFF34F8FBFF36F8FCBE766
:1023C0002046FFF78CFE00F0F1FB92E704ED00E001
:1023D0002DE9F843894690461F46044640B94FF020
:1023E000500383F31188BFF36F8FBFF34F8FFEE766
:1023F00051B9036C43B14FF0500383F31188BFF31D
:102400006F8FBFF34F8FFEE7022F0BD1E36B012BD2
:1024100008D04FF0500383F31188BFF36F8FBFF3E1
:102420004F8FFEE701F022F9EFF311864FF05003D2
:1024300083F31188BFF36F8FBFF34F8FA26BE36BF2
:102440009A4201D3022F23D194F84550A36B6DB269
:102450003A4649462046FFF7F7FD6B1C13D1636AE5
:102460000BB901200BE004F1240000F0ABFC0028C4
:10247000F7D0B8F1000FF4D00120C8F8000086F3BF
:102480001188BDE8F88301356DB284F84550E8E75E
:102490000020F4E72DE9F04385B00F460192044691
:1024A00040B94FF0500383F31188BFF36F8FBFF330
:1024B0004F8FFEE751B9036C43B14FF0500383F3E4
:1024C0001188BFF36F8FBFF34F8FFEE700F00CFD55
:1024D000064650B9019B4BB14FF0500383F311886E
:1024E000BFF36F8FBFF34F8FFEE70026DFF8E0905A
:1024F0004FF000083BE0019D1DB900F0BDFF00203A
:1025000052E016B902A800F0A1FC00F0B5FF00F0FF
:10251000A9FA00F08FFF94F84430FF2B08BF84F82D
:10252000448094F84530FF2B08BF84F8458000F0C4
:10253000A3FF01A902A800F095FC00283DD1204688
:10254000FFF777FD98B3019904F1240000F002FC35
:102550002046FFF7C4FD00F029FB38B94FF0805347
:10256000C9F80030BFF34F8FBFF36F8F012600F023
:1025700061FFA56B002DBED039462046013DFFF717
:1025800098FDA563236963B104F1100000F01AFC03
:1025900038B10F4B4FF080521A60BFF34F8FBFF32B
:1025A0006F8F00F069FF012005B0BDE8F083204681
:1025B000FFF795FD00F0FAFAD8E72046FFF78FFD08
:1025C00000F0F4FA2046FFF734FD0028CED096E75D
:1025D00004ED00E030B5074A002352F8335002EB17
:1025E000C3041DB942F83310606030BD0133082BBD
:1025F000F3D1FAE7DC4A002070B504460D461646D2
:1026000000F018FF94F84430FF2B04BF002384F837
:10261000443094F84530FF2B04BF002384F8453044
:1026200000F02AFFA36B2BB93246294604F124009F
:1026300000F0AAFB2046BDE87040FFF750BD000047
:102640002DE9F041044600F0F5FE2F4B2F4D1A689E
:102650002F4F01321A602E68002E49D12C601B6862
:10266000012B1FD1B84640460136FFF7A1FC382E9A
:1026700008F11408F7D1DFF8C480264E4046FFF772
:1026800097FC3046FFF794FC2348FFF791FC234862
:10269000FFF78EFC2248FFF78BFC224BC3F800802B
:1026A000214B1E60214A136801331360204A636482
:1026B0001168E36A14208B4200FB037004F10401EB
:1026C00088BF1360FFF782FC00F0D6FE194B1B6831
:1026D00063B12B68DA6AE36A9A4207D2164B4FF06D
:1026E00080521A60BFF34F8FBFF36F8FBDE8F08148
:1026F000104B1B68002BD5D12B68DA6AE36A9A422B
:1027000098BF2C60CEE700BFBC0B00205007002014
:102710005C070020E40B0020040C0020300C00209B
:102720001C0C00205407002058070020C80B002074
:10273000CC0B0020180C002004ED00E0D00B002092
:10274000064A13681968064B19B94FF0FF321A6030
:1027500070471268D268D2685268F8E754070020C0
:10276000F80B00202DE9F047DDE909844FEA8209E2
:102770004A4606460D46206BA5211F4601F042FA47
:10278000226BA9F10409914429F00709ADB36B1E2E
:1027900004F134020F3513F8011F02F8011B1978F8
:1027A00009B1AB42F7D1002384F84330089D372D9F
:1027B00028BF37254FF0000AE562E564201DC4F804
:1027C00050A0FFF700FCC5F1380504F11800FFF731
:1027D000FAFBC4F854A02461A561646284F858A08F
:1027E0003A463146484600F0FBFD2060B8F1000F44
:1027F00001D0C8F80040BDE8F08784F83450D5E730
:1028000010B590F8593004463BB9006B01F012F84E
:102810002046BDE8104001F00DB8012BF9D0022B85
:1028200008D04FF0500383F31188BFF36F8FBFF3CD
:102830004F8FFEE710BD000080B5DFF85C80124FBF
:10284000124C134D236863B9124B1B68012BF8D946
:102850004FF08053C8F80030BFF34F8FBFF36F8F36
:10286000EEE700F0E7FDFB68DE68301DFFF7D1FB07
:102870002B68013B2B602368013B236000F0FCFDCB
:102880003046FFF7BDFFDDE7300C0020C00B002015
:10289000BC0B00205C07002004ED00E0F8B5164BEF
:1028A000164E1D680446306804300F46FFF7B1FB32
:1028B000631C334607D137B131681148BDE8F84091
:1028C0000431FFF783BB1A682C19546007D30D4AF3
:1028D00010681968BDE8F8400431FFF783BB0A4A65
:1028E000106819680431FFF77DFB084B1A68A24293
:1028F00088BF1C60F8BD00BF440C002050070020BA
:102900001C0C00205807002054070020F80B002062
:1029100070B586B0DDE90B5445B94FF0500383F331
:102920001188BFF36F8FBFF34F8FFEE744B94FF0AD
:10293000500383F31188BFF36F8FBFF34F8FFEE710
:102940005C260596059E5C2E08D04FF0500383F35D
:102950001188BFF36F8FBFF34F8FFEE7256302250A
:1029600084F8595004AD01950A9D02940095059E86
:10297000FFF7F8FE2046FFF763FE049806B070BD2F
:102980002DE9F043074685B09000884616469946E3
:1029900000F0BEFE0546E8B15C2000F0B9FE04463A
:1029A000A8B1002380F859300D9B056301930C9B5F
:1029B0000290009332464B4641463846FFF7D2FE1E
:1029C0002046FFF73DFE012005B0BDE8F083284614
:1029D00000F030FF4FF0FF30F6E7000010B588B090
:1029E000002407AA06A905A8CDE90544FFF7C8FAFF
:1029F000059B0293069B079A15491648CDE90043AB
:102A00002346FFF785FFA8B100F014FB012813D17E
:102A10004FF0500383F31188BFF36F8FBFF34F8FD5
:102A20000D4B4FF0FF321A600C4B18600C4B1C60C2
:102A300000F098FD08B010BD0130FBD14FF05003FD
:102A400083F31188BFF36F8FBFF34F8FFEE700BF93
:102A50006845000839280008F80B0020180C0020F1
:102A6000440C0020024A136801331360704700BF12
:102A7000C40B0020014B1868704700BF440C0020B5
:102A80003F4B1B682DE9F74F002B73D13D4B1D6861
:102A900001351D60BDB93C4B1A68126842B14FF058
:102AA000500383F31188BFF36F8FBFF34F8FFEE79F
:102AB000364A1968106818601160354A1368013386
:102AC0001360FFF73DFE334E334F3368DFF8D48099
:102AD0009D424FF0000411D2D8F80030DA6A142376
:102AE0005343FB58022B2D4B1B6828BF0124002B9E
:102AF00018BF0124204603B0BDE8F08FDFF88890AE
:102B0000DFF8A4A0D9F800301B681BB94FF0FF33E1
:102B10003360E1E7D9F80030DB68D3F80CB0DBF8BC
:102B20000420954201D23260D6E70BF10401084639
:102B30000191FFF76EFADBF82820019922B10BF121
:102B40001800FFF766FA0199DBF82C00DAF800208C
:102B50001423904288BFCAF8000003FB0070FFF7FF
:102B600035FAD8F80010DBF82C20CB6A9A4228BF3F
:102B70000124C7E70A4A1368013313600024B9E748
:102B8000C40B0020440C00205407002058070020EC
:102B9000FC0B0020F80B00205C070020480C0020F4
:102BA000000C002050070020CC0B0020F7B5304C63
:102BB000236843B94FF0500383F31188BFF36F8F3D
:102BC000BFF34F8FFEE700F035FC2368013B236025
:102BD00024682CB1002400F04FFC204603B0F0BD67
:102BE000244B1B68002BF5D0234D244E244F1EE0B0
:102BF000EB68DC6804F11800FFF70BFA211D0846AA
:102C00000191FFF706FAE36A3268019914209342B2
:102C100000FB037088BF3360FFF7D8F9194BE26AF5
:102C20001B68DB6A9A4202D3174B01221A602B6899
:102C3000002BDDD10CB1FFF783FD144D2C6844B19E
:102C4000114E0127FFF71CFF00B13760013CF9D19D
:102C50002C600D4B1B68002BBCD00D4B4FF08052ED
:102C60001A60BFF34F8FBFF36F8F0124B3E700BF2C
:102C7000C40B0020BC0B0020040C0020CC0B002057
:102C80005C07002050070020480C0020000C0020AA
:102C900004ED00E008B540B90E4B4FF080521A60C9
:102CA000BFF34F8FBFF36F8F08BD0B4B196841B156
:102CB0004FF0500383F31188BFF36F8FBFF34F8F33
:102CC000FEE7FFF7CFFEFFF7E9FDFFF76FFF0028F4
:102CD000E2D0E9E704ED00E0C40B0020184B1A68CD
:102CE000184BF0B512B101221A60F0BD164D1A60F2
:102CF000164A2B681427164607FB03F15018545840
:102D00008CB144680831646844600A44944204BF4A
:102D100062684260142202FB03625268D1680C4A66
:102D200011602B60E1E743B94FF0500383F3118842
:102D3000BFF36F8FBFF34F8FFEE7013BDCE700BFB0
:102D4000C40B0020480C0020CC0B00205C070020A6
:102D50005007002010B50C4640B94FF0500383F3E4
:102D60001188BFF36F8FBFF34F8FFEE7054B1968D4
:102D70001831FFF737F920460121BDE81040FFF771
:102D80008DBD00BF5007002038B50D46144640B930
:102D90004FF0500383F31188BFF36F8FBFF34F8F52
:102DA000FEE7074B19681831FFF710F9002C214690
:102DB0000CBF28464FF0FF30BDE83840FFF76EBD2E
:102DC00050070020C36813B5DC6844B94FF05003C6
:102DD00083F31188BFF36F8FBFF34F8FFEE704F1CA
:102DE000180108460191FFF714F9124B01991B686D
:102DF000EBB9211D08460191FFF70BF90E4AE36A72
:102E000010680199834288BF13600C4A142000FBAC
:102E10000320FFF7DBF80A4BE26A1B68DB6A9A4281
:102E200085BF084B01200020186002B010BD064885
:102E3000EFE700BFC40B0020CC0B00205C07002094
:102E400050070020480C0020040C0020034B1B6896
:102E50000360034B1B684360704700BFFC0B0020FE
:102E6000440C002070B50C46054640B94FF05003A5
:102E700083F31188BFF36F8FBFF34F8FFEE741B924
:102E80004FF0500383F31188BFF36F8FBFF34F8F61
:102E9000FEE700F0CFFA0F4B196823685A1C10D0D8
:102EA0000D482E6800686A68864201D08A420FD9B0
:102EB000881A83420AD95B1A134423602846FFF715
:102EC000C5FF002400F0D8FA204670BD002323601F
:102ED0000124F7E7440C0020FC0B0020014B0122E9
:102EE0001A607047480C0020054B1B6833B1054B36
:102EF0001B68002B0CBF0220002070470120704788
:102F0000180C0020C40B002013B510B9002002B02B
:102F100010BD1C4B1C68844208D04FF0500383F353
:102F20001188BFF36F8FBFF34F8FFEE7236D43B957
:102F30004FF0500383F31188BFF36F8FBFF34F8FB0
:102F4000FEE7E16AE26C013B91422365DED0002B93
:102F5000DCD1211D08460191FFF75BF8E36C019974
:102F6000E362C3F13802A261074A1068834288BF56
:102F70001360064A142000FB0320FFF727F8012006
:102F8000C5E700BF50070020CC0B00205C070020E5
:102F9000F7B5114C00F04EFA2568BDB90F4F104E31
:102FA0003846FFF705F83046FFF702F80D4B0E4A9A
:102FB0001F600E4B10211E600A200D4B0095FFF77D
:102FC00007F9206010B10B49FFF704FB03B0BDE81F
:102FD000F04000F051BA00BF700D0020F40C00204A
:102FE000080D00204C0C0020540C0020500C002038
:102FF000200D00206D450008914208B54160006138
:103000000AD8D21A83699A420DD2084B011D18685A
:10301000FEF7E8FF002008BD9A4201D2994202D291
:10302000034B011DF3E70120F5E700BF500C002022
:103030004C0C002010B588B0FFF7AAFF124B1B689C
:10304000B3B1002407AA06A905A8CDE90544FEF7F7
:10305000A3FF059B0293069B019302230093079A0B
:103060000A490B482346FFF753FC0A4B186040B946
:103070004FF0500383F31188BFF36F8FBFF34F8F6F
:10308000FEE7012008B010BD700D00207245000859
:103090006D310008740D00207FB5164604461A46AF
:1030A00040B94FF0500383F31188BFF36F8FBFF324
:1030B0004F8FFEE70D4D286880B10529CDE9001638
:1030C00002940DDCFFF710FF0023022808BF089AC6
:1030D000286818BF1A466946FFF7C8F804B070BDE3
:1030E00000236946FFF774F9F8E700BF700D002070
:1030F000F0B51C4D85B000272B681A682AB91A4A0A
:1031000011682960136005B0F0BDDB68DC681E68DB
:10311000211D08460391FEF77CFF236A204698474D
:1031200094F82830039913F0040FE5D0A3693344D1
:103130009E4205D2286863602461FEF753FFDBE7F7
:1031400000230097324619462046FFF7A5FF0028C6
:10315000D2D14FF0500383F31188BFF36F8FBFF3C9
:103160004F8FFEE74C0C0020500C00202DE9F04F53
:10317000774FDFF8ECA187B0B9463B68D3F800B0D1
:10318000BBF1000F28D0DB68D3F800B00024714EEB
:10319000FFF768FCFFF76EFC336898420546B046BF
:1031A0001CD330601CB36C4B1B681C68B4FA84F4ED
:1031B00064096A4B22461868ABEB0501FFF71CFA5D
:1031C000FFF7F4FC78B94FF08053CAF80030BFF332
:1031D0004F8FBFF36F8F06E00124D8E7FFF788FF1A
:1031E0003560FFF7E3FC5D4E4FF0000B35E08345A3
:1031F000DFD8FFF7DBFCD9F80030DB68DE68301D74
:10320000FEF707FF96F82830580718D5B1695B46D6
:103210002A4659443046FFF7EFFEA0B100942346FA
:103220005A4621463046FFF737FF60B94FF050034A
:1032300083F31188BFF36F8FBFF34F8FFEE723F047
:10324000010386F82830336A30469847CBE7039B62
:1032500005999847029B002B0ADA3068002202A9E0
:10326000FFF718F9002888D0029B0498002BEEDBAA
:10327000049C6369A3B9FFF7FDFBD8F800309842BE
:10328000054601D2FFF734FF029BC8F80050092B16
:10329000E3D8DFE803F0090909343B540909343B5A
:1032A000201DFEF7B6FEE6E794F82830A16943F04A
:1032B000010384F82830039B2A4619442046FFF76F
:1032C0009BFE0028C9D0236A2046984794F82830EE
:1032D0005907C2D5A2690399CDF800B000230A446A
:1032E00020461946FFF7D8FE0028B6D14FF050030C
:1032F00083F31188BFF36F8FBFF34F8FFEE794F80E
:10330000283023F0010384F82830A6E794F8283009
:103310000399A16143F0010384F8283041B94FF0CB
:10332000500383F31188BFF36F8FBFF34F8FFEE716
:103330002B462A4629442046FFF75EFE8DE794F887
:1033400028309A07DDD4204600F074FA85E700BFE4
:103350004C0C00201C0D0020500C0020700D002093
:1033600004ED00E008480068006880F308884FF02A
:10337000000080F3148862B661B6BFF34F8FBFF3CD
:103380006F8F00DF00BF000008ED00E0DFF80C00E9
:10339000016841F4700101607047000088ED00E0B1
:1033A00082B0002301930D4B1B68013308D04FF00E
:1033B000500383F31188BFF36F8FBFF34F8FFEE786
:1033C0004FF0500383F31188BFF36F8FBFF34F8F1C
:1033D000019B002BFCD002B0704700BF0C00002006
:1033E0004FF0807340F8043C074B40F80C3C21F050
:1033F00001016FF0020340F8081C40F8202C40F84F
:10340000243C4438704700BFA1330008000000008E
:10341000074B19680868B0E8F04F80F30988BFF3DC
:103420006F8F4FF0000080F311887047AFF300807A
:10343000500700204FF0500383F31188BFF36F8FC4
:10344000BFF34F8F0A4A13680133012B13600DD16C
:10345000084B1B6813F0FF0F08D04FF0500383F3A5
:103460001188BFF36F8FBFF34F8FFEE7704700BF28
:103470000C00002004ED00E0084A136843B94FF047
:10348000500383F31188BFF36F8FBFF34F8FFEE7B5
:10349000013B13600BB983F3118870470C000020C7
:1034A000EFF30980BFF36F8F154B1A681EF0100FF2
:1034B00008BF20ED108A20E9F04F10602DE90900C7
:1034C0004FF0500080F31188BFF34F8FBFF36F8F21
:1034D000FFF704FC4FF0000080F3118809BC196865
:1034E0000868B0E8F04F1EF0100F08BFB0EC108A6B
:1034F00080F30988BFF36F8F704700BFAFF3008080
:103500005007002008B54FF0500383F31188BFF334
:103510006F8FBFF34F8FFFF7B3FA18B1034B4FF024
:1035200080521A60002383F3118808BD04ED00E087
:10353000084A0949002313600B60084B4FF47A7165
:103540001B68B3FBF1F30649013B0B6007231360D3
:10355000704700BF10E000E018E000E0000000202D
:1035600014E000E0384B394A13B51968914208D18C
:103570004FF0500383F31188BFF36F8FBFF34F8F6A
:10358000FEE71A68324B9A4208D14FF0500383F39A
:103590001188BFF36F8FBFF34F8FFEE72D4B1A7863
:1035A000D2B20192FF221A701B782B4ADBB28DF83F
:1035B00003309DF8033003F050031370274A0723AC
:1035C000136000219DF80300000603F1FF340CD4C2
:1035D00011B1032B136011D04FF0500383F3118806
:1035E000BFF36F8FBFF34F8FFEE79DF803305B0093
:1035F000DBB28DF8033001212346E3E74FF440733B
:103600001360019B134ADBB21370154B1A6842F426
:1036100070021A601A6842F070421A60FFF788FF61
:10362000104B00241C60FFF7B1FE0F4A136843F0F3
:1036300040431360FFF796FEFFF750FBFFF7B0FE25
:10364000204602B010BD00BF00ED00E071C20F4186
:1036500070C20F4100E400E0780D00207C0D0020D6
:1036600020ED00E00C00002034EF00E0EFF30583D4
:103670000F2B0ED9104A9B5C104A12789A4208D937
:103680004FF0500383F31188BFF36F8FBFF34F8F59
:10369000FEE70B4B0B4A1B68126803F4E06393428E
:1036A00008D94FF0500383F31188BFF36F8FBFF336
:1036B0004F8FFEE7704700BFF0E300E0780D002079
:1036C0000CED00E07C0D002010B50F4B1A461B6876
:1036D0008342FBD354681119884201BF41681046E8
:1036E00009195160446801198B4207D107490968DB
:1036F0008B421FBF59681B680919416090420360E3
:1037000018BF106010BD00BF98490020800D002038
:103710002DE9F0410446FFF7A5F93E4B3E481A68F3
:103720009C46D2B93D4A3E4B55071CBF073222F09A
:10373000070200211A6059603A4B23F00703C3E9DE
:103740000011991AC2E90031CCF80030364B1960EB
:10375000364B19604FF0004303600768274253D18E
:10376000002C44D004F1080361071CBF23F00703B9
:103770000833002B48D02D4A16689E42904643D30A
:10378000274A15686968994201D22868A8B9DCF807
:103790000000A84238D0C91A28681468106010299F
:1037A00012D9E81842070BD04FF0500383F3118869
:1037B000BFF36F8FBFF34F8FFEE72A460546E1E761
:1037C00041606B60FFF780FF6B681749184A086813
:1037D000F61A1F4300232B601368C8F80060864266
:1037E00003F1010338BF0E6008346F601360FFF708
:1037F000DDF963070AD04FF0500383F31188BFF35C
:103800006F8FBFF34F8FFEE70024F0E72046BDE83F
:10381000F08100BF800D002084490020840D00202D
:10382000984900207C4900208C49002088490020CC
:103830009049002010B5044690B31A4A50F8043C51
:103840001268134208D14FF0500383F31188BFF37D
:103850006F8FBFF34F8FFEE750F8081C41B14FF058
:10386000500383F31188BFF36F8FBFF34F8FFEE7D1
:1038700023EA020340F8043CFFF7F4F80A4A54F83C
:10388000043C1168A4F108000B441360FFF71CFF0F
:10389000064A1368BDE8104001331360FFF786B98C
:1038A00010BD00BF844900208849002094490020B1
:1038B00070B50A46044601B101221348124E4FF476
:1038C0008071FDF731FC0825002220213046FDF7EC
:1038D0002BFC23064CBF0122002240213046FDF77D
:1038E00023FC013D012220213046FDF71DFC640030
:1038F00015F0FF05E4B2E7D1BDE8704002480122AF
:103900004FF48071FDF710BC0010024070B50F4EEF
:10391000B02400212046FFF7CBFF00210846FFF727
:10392000C7FF00211020FFF7C3FF002516F8350060
:1039300001210135FFF7BCFF802DF7D10134E4B23E
:10394000B82C06F10106E4D170BD00BF1C4B00206D
:10395000084908230020002201F832000132802AA1
:10396000FAD1013B13F0FF0301F10101F3D1FFF79D
:10397000CDBF00BF1C4B0020030630B513D43F2938
:1039800011D801F007050A4CC908C1F10701C9B2F5
:1039900004EBC0000123C5F1070503FA05F5435CFC
:1039A00012B12B43435430BD23EA0503FAE700BFAD
:1039B0001C4B00202DE9F74F1F46A2F1200A1F4B98
:1039C0009DF830B05FFA8AFA03EB0A1300931C4BA0
:1039D0000AEB4A0A03EB8A038146884601930C46A8
:1039E0000026B74202D103B0BDE8F08F0C2F0CBF08
:1039F000019B009B9D5D04F108035FFA83FA2B068F
:103A000058BFBBFA8BF2214604F101044CBF5A4661
:103A100052094846E4B2FFF7AFFFA4EB08026D007D
:103A2000BA42EDB207D109F101005FFA80F9C2464E
:103A300001365446D5E7A245E1D1F9E7EE49000841
:103A40007A450008F7B504460D46561E012716F8BC
:103A5000013F0BB903B0F0BD7A2C82BF1035EDB237
:103A600000243A2D03D9FFF773FF00252C46009759
:103A7000204632780C2329460834FFF79BFFE4B236
:103A8000E5E7000010B5FDF755FB404B404C1A6FC1
:103A900022F001021A671A6F22F004021A67FDF77A
:103AA00057FB002280212046FDF73EFB6420FDF7F6
:103AB000F3F9012220468021FDF736FB0021AE20DC
:103AC000FFF7F6FE0021D520FFF7F2FE002150207F
:103AD000FFF7EEFE0021A820FFF7EAFE00213F20BD
:103AE000FFF7E6FE0021D320FFF7E2FE00210846A3
:103AF000FFF7DEFE00214020FFF7DAFE00218D20D7
:103B0000FFF7D6FE00211420FFF7D2FE002120206F
:103B1000FFF7CEFE00210220FFF7CAFE0021A12000
:103B2000FFF7C6FE0021C020FFF7C2FE0021DA2009
:103B3000FFF7BEFE00211220FFF7BAFE0021812010
:103B4000FFF7B6FE0021EF20FFF7B2FE0021D920DB
:103B5000FFF7AEFE0021F120FFF7AAFE0021DB20D7
:103B6000FFF7A6FE00213020FFF7A2FE0021A420CF
:103B7000FFF79EFE0021A620FFF79AFE0021AF204E
:103B8000FFF796FEBDE81040FFF7E2BE00380240A6
:103B900000100240014B1868704700BF1000002061
:103BA00070B50D4D0D4C641BA4100026A64209D122
:103BB0000B4D0C4C00F04EFC641BA4100026A642DA
:103BC00005D170BD55F8043B98470136EEE755F82E
:103BD000043B98470136F2E71C5000081C500008CF
:103BE0001C500008205000080A44914200F1FF33A5
:103BF00000D1704710B511F8014B03F8014F914205
:103C0000F9D110BD02440346934200D1704703F836
:103C1000011BF9E70EB400B59CB01DAB02900690F5
:103C20006FF00041094807910491094953F8042BAA
:103C300005910068019302A900F068F8029B002238
:103C40001A701CB05DF804EB03B070471000002040
:103C50000802FFFF2DE9F0478E689E4282460C461F
:103C600090461F4638D88A8912F4906F32D0256862
:103C70000969A5EB0109656905EB450505EBD575F6
:103C800001334B446D109D4238BF1D46530531D55D
:103C9000294600F039FB064650B90C23CAF800301B
:103CA000A38943F04003A3814FF0FF30BDE8F087C4
:103CB00021694A46FFF798FFA38923F4906343F0F4
:103CC0008003A381266165614E44A5EB090526604A
:103CD000A5603E46BE4200D93E4632462068414677
:103CE00000F0A8FAA36822689B1B3244A3602260FC
:103CF0000020DBE72A4600F061FB06460028E1D100
:103D00002169504600F0B0FAC7E700002DE9F04FF6
:103D100098468B891B069DB007460D4614460ED566
:103D20000B6963B9402100F0EFFA2860286120B9DF
:103D30000C233B604FF0FF30D1E040236B61002348
:103D4000099320238DF82930CDF80C803023DFF83B
:103D5000A8818DF82A304FF0010923469A4613F8BE
:103D6000012B0AB1252AF9D1BAEB040B0BD05B4623
:103D7000224629463846FFF76DFF013000F0AA8041
:103D8000099A5A4409929AF80030002B00F0A28058
:103D900000234FF0FF32CDE905230AF1010A049315
:103DA00007938DF853301A935446052214F8011BDB
:103DB0005148FCF70DFA049AD8B9D00644BF202325
:103DC0008DF85330110744BF2B238DF853309AF8E8
:103DD00000302A2B15D0079A544600204FF00A0CC9
:103DE000214611F8013B303B092B4ED9B0B1079267
:103DF00014E0A0EB080309FA03F313430493A2466B
:103E0000D2E7039B191D1B680391002BBBBF5B42CC
:103E100042F0020207930793B8BF049223782E2B37
:103E20000CD163782A2B35D1039B1A1D1B68039292
:103E3000002BB8BF4FF0FF3302340593DFF8C8A062
:103E4000217803225046FCF7C3F940B14023A0EB90
:103E50000A0003FA00F0049B03430134049314F8AE
:103E6000011B26488DF828100622FCF7B1F900281E
:103E700038D0234B1BBB039B073323F007030833C6
:103E80000393099B3344099367E70CFB02320C460A
:103E90000120A5E700230134059319464FF00A0CD1
:103EA000204610F8012B303A092A03D9002BC5D03F
:103EB0000591C3E70CFB012104460123F0E703ABA6
:103EC00000932A460F4B04A93846AFF30080421CEA
:103ED0000646D6D1AB895B063FF52CAF09981DB0DD
:103EE000BDE8F08F03AB00932A46064B04A9384681
:103EF00000F07AF8EBE700BFDE4F0008E84F00085B
:103F000000000000553C0008E44F00082DE9F04790
:103F1000164699468A680B69DDF820809342B8BF3F
:103F20001346336091F8432007460C460AB101332B
:103F300033602368990642BF3368023333602568D3
:103F400015F0060506D104F1190AE36832689B1AD8
:103F5000AB4226DC94F84320131E226818BF0123CD
:103F600092062BD404F1430249463846C04701303B
:103F70001ED02368E568326803F00603042B08BFEF
:103F8000AD1AA36822690CBF25EAE57500259342A6
:103F9000C4BF9B1AED1800261A34B5421AD100206E
:103FA00008E00123524649463846C047013003D154
:103FB0004FF0FF30BDE8F0870135C6E7E1185A1C25
:103FC000302081F84300224494F8451082F84310D1
:103FD0000233C7E70123224649463846C04701302D
:103FE000E6D00136D9E700002DE9FF470C4691469F
:103FF000277E0C99782F80469A4604F1430207D811
:10400000622F0AD8002F00F0D880582F00F0A3802C
:1040100004F1420684F842703AE0A7F16303152BDD
:10402000F6D801A050F823F0814000089540000820
:10403000114000081140000811400008114000081C
:104040009540000811400008114000081140000888
:1040500011400008A1410008C54000088341000844
:104060001140000811400008C34100081140000839
:10407000C540000811400008114000088B410008AD
:104080000B681A1D1B680A6004F1420684F842306E
:104090000123A3E0256808682E0600F104030AD571
:1040A00005680B60002D03DA2D236D4284F8433040
:1040B0005E480A2319E015F0400F05680B6018BF31
:1040C0002DB2EFE70B682568181D0860280601D59A
:1040D0001D6802E06906FBD51D8854486F2F0CBF90
:1040E00008230A23002184F843106668A660002E86
:1040F000A2BF216821F0040121600DB9002E4DD02E
:104100001646B5FBF3F103FB1157C75D06F8017DB9
:104110002F46BB420D46F4D9082B0BD12368DF078D
:1041200008D5236961689942DEBF302306F8013C57
:1041300006F1FF36921B2261CDF800A04B4603AA80
:1041400021464046FFF7E2FE01304CD14FF0FF30F0
:1041500004B0BDE8F087354884F8457023680E68E0
:104160001F0656F8045B0E6014D5D90744BF43F010
:10417000200323601DB9236823F02003236010234C
:10418000B0E7236843F0200323607823284884F8AD
:104190004530E3E75E0648BFADB2E6E71646BBE74B
:1041A0000B68266860691D1D0D6035061B6801D50A
:1041B000186002E07106FBD51880002323611646C3
:1041C000BAE70B681A1D0A601E6862680021304653
:1041D000FBF7FEFF08B1801B60606368236100236A
:1041E00084F84330A8E72369324649464046D04721
:1041F0000130ABD023689B0713D4E068039B98423F
:10420000B8BF1846A4E70123324649464046D04786
:1042100001309BD00135E36803995B1AAB42F2DCB5
:10422000EBE7002504F11906F5E700BFEF4F0008A2
:1042300000500008884210B501EB020402D9844204
:10424000234607D8431EA14208D011F8012B03F8DA
:10425000012FF8E7024401468A4200D110BD13F84D
:10426000014D02F8014DF7E737B5002948D051F864
:10427000043C0190002BA1F10404B8BFE41800F045
:10428000D3F8204A01981368154633B96360146067
:1042900003B0BDE8304000F0CDB8A3420BD921688F
:1042A0006218934204BF1A685B68636004BF5218C7
:1042B00022602C60ECE71A465B680BB1A342FAD986
:1042C00011685518A5420BD1246821445418A34203
:1042D0001160DDD11C685B68536021441160D7E731
:1042E00002D90C230360D3E7256861198B4204BF10
:1042F00019685B68636004BF491921605460C7E7AF
:1043000003B030BDA0490020F8B5CD1C25F0030551
:1043100008350C2D38BF0C25002D064601DBA942BF
:1043200003D90C2333600020F8BD00F07DF821494B
:104330000A6814469CB9204F3B6823B92146304691
:1043400000F062F838602946304600F05DF8431C02
:1043500023D10C233360304600F06CF8E3E7236888
:104360005B1B17D40B2B03D923601C44256004E08E
:104370006368A2420CBF0B605360304600F05AF8ED
:1043800004F10B00231D20F00700C21ACCD01B1A29
:10439000A350C9E722466468CCE7C41C24F0030498
:1043A000A042E3D0211A304600F02EF80130DDD1D2
:1043B000CFE700BFA0490020A4490020F8B5074678
:1043C00014460E4621B9BDE8F8401146FFF79CBFE0
:1043D00022B9FFF749FF25462846F8BD00F030F81E
:1043E000A0420FD221463846FFF78EFF054600282F
:1043F000F2D031462246FFF7F7FB31463846FFF749
:1044000033FFE9E73546E7E738B5064D00230446B4
:1044100008462B60FCF79CFC431C02D12B6803B1BF
:10442000236038BD1C4F0020014800F011B800BFC8
:10443000244F0020014800F00CB800BF244F00209A
:1044400051F8043C181F002BBCBF0B58C018704714
:1044500070477047F8B500BFF8BC08BC9E4670476F
:0C446000F8B500BFF8BC08BC9E467047D1
:10446C00537065656420413A2535640000537065CE
:10447C00656420423A253564000048656C6C6F20F9
:10448C00576F726C6421000000000000000053683C
:10449C006F775461736B00456E636F646572546122
:1044AC00736B004D6F746F725461736B006465664F
:1044BC0061756C745461736B00000000A3440008B8
:1044CC0000000000000000000000000000000000E0
:1044DC0000020000080000000000000000000000C6
:1044EC00AF440008000000000000000000000000C5
:1044FC0000000000000200000800000000000000A6
:10450C00000000009A4400080000000000000000B9
:10451C000000000000000000000200002800000065
:10452C000000000000000000B9440008000000007A
:10453C00000000000000000000000000000200006D
:10454C001800000000000000000000000000000047
:10455C0000000000010203040607080949444C4509
:10456C0000546D725100546D72205376630000003C
:10457C0000000000000000000000000000003F40B0
:10458C00000000000000000030004000300040003F
:10459C00000009000BC03D000BC03D00090018C015
:1045AC0024407FE0224031800000180024C01B0012
:1045BC000D803240018003801C4027401C80074046
:1045CC00004010006000000000000000000000002F
:1045DC00000000001F8020404020000040202040B0
:1045EC001F8000000000090006001F800600090063
:1045FC000000040004003F800400040000000010D0
:10460C000060000000000000000004000400040032
:10461C000400040000000000004000000000000046
:10462C000000002001C006003800400000001F8080
:10463C002040204020401F800000000010403FC060
:10464C0000400000000018C02140224024401840C7
:10465C00000010802040244024401B8000000200F9
:10466C000D0011003FC0014000003C80244024405C
:10467C002440238000001F802440244034400380C9
:10468C0000003000200027C03800200000001B80F4
:10469C002440244024401B8000001C0022C02240E7
:1046AC0022401F80000000000000084000000000B5
:1046BC00000000000000046000000000000000008A
:1046CC0004000A0011002080404009000900090084
:1046DC0009000900000000004040208011000A0081
:1046EC0004001800200023402400180000001F8044
:1046FC002040274029401F400000004007C03900DF
:10470C000F0001C0004020403FC0244024401B80CB
:10471C0000001F80204020402040308000002040BE
:10472C003FC0204020401F80000020403FC024405C
:10473C002E4030C0000020403FC024402E003000EE
:10474C0000000F00108020402240338002002040E7
:10475C003FC0040004003FC02040204020403FC028
:10476C002040204000000060202020203FC020007E
:10477C00200020403FC024400B0030C0204020408F
:10478C003FC020400040004000C03FC03C0003C080
:10479C003C003FC0000020403FC00C4023003FC005
:1047AC0020001F802040204020401F80000020401F
:1047BC003FC024402400180000001F8021402140ED
:1047CC0020E01FA0000020403FC02440260019C05C
:1047DC00004018C0244024402240318000003000AA
:1047EC0020403FC020403000000020003F800040AF
:1047FC0000403F80200020003E0001C00700380030
:10480C002000380007C03C0007C0380000002040E2
:10481C0039C0060039C0204000002000384007C0D5
:10482C00384020000000304021C02640384020C0D5
:10483C000000000000007FE040204020000000004D
:10484C0070000C000380004000000000402040205D
:10485C007FE000000000000020004000200000006D
:10486C0000000010001000100010001000100000DC
:10487C000000400000000000000000000280054025
:10488C00054003C0004020003FC0044004400380AA
:10489C0000000000038004400440064000000000BB
:1048AC000380044024403FC00040000003800540CA
:1048BC00054003400000000004401FC02440244079
:1048CC002000000002E00550055006500420204056
:1048DC003FC00440040003C000400000044027C057
:1048EC0000400000000000100010041027E0000041
:1048FC00000020403FC00140070004C0044020409D
:10490C0020403FC000400040000007C0040007C02A
:10491C00040003C00000044007C00440040003C0AE
:10492C000040000003800440044003800000041099
:10493C0007F0045004400380000000000380044092
:10494C00045007F00010044007C0024004000400AB
:10495C000000000006400540054004C000000000B7
:10496C0004001F8004400040000004000780004049
:10497C00044007C000400400070004C0018006008A
:10498C000400060001C0070001C00600000004403E
:10499C0006C0010006C0044000000410071004E02B
:1049AC000180060004000000044005C006400440DD
:1049BC0000000000000004007BE04020000000002C
:1049CC0000000000FFF000000000000040207BE031
:1049DC000400000000004000800040002000200087
:1049EC00400000000000000000000000000000007B
:1049FC0000000000000000001FCC000C00000000B4
:104A0C00000000000800300060000800300060006A
:104A1C000000022003FC1E20022003FC1E200220AA
:104A2C00000000000E1811043FFF10840C780000E9
:104A3C0000000F0010840F3800C00778188400782D
:104A4C00000000780F8410C411240E9800E4008438
:104A5C000008080068007000000000000000000062
:104A6C00000000000000000007E0181820044002BD
:104A7C000000000040022004181807E000000000AD
:104A8C0000000240024001800FF001800240024011
:104A9C0000000080008000800FF800800080008003
:104AAC0000000001000D000E0000000000000000DE
:104ABC0000000000008000800080008000800080EA
:104ACC0000800000000C000C000000000000000042
:104ADC0000000000000600180060018006001800AD
:104AEC002000000007F0080810041004080807F064
:104AFC0000000000080408041FFC0004000400006F
:104B0C00000000000E0C10141024104411840E0C24
:104B1C00000000000C1810041104110412880C7011
:104B2C000000000000E00320042408241FFC0024E3
:104B3C00000000001F9810841104110410881070DC
:104B4C000000000007F00888110411041888007098
:104B5C00000000001C00100010FC13001C001000D2
:104B6C00000000000E3811441084108411440E38DB
:104B7C00000000000700088C10441044088807F05F
:104B8C000000000000000000030C030C00000000FB
:104B9C000000000000000001010600000000000001
:104BAC0000000000008001400220041008081004DE
:104BBC0000000220022002200220022002200220FB
:104BCC0000000000100408080410022001400080BE
:104BDC00000000000E001200100C106C10800F0072
:104BEC00000003E00C1813E4142417C4082807D0A1
:104BFC0000000004003C03C41C40074000E4001CFF
:104C0C00000410041FFC1104110411040E88007020
:104C1C00000003E00C1810041004100410081C1001
:104C2C00000010041FFC100410041004080807F006
:104C3C00000010041FFC1104110417C41004081800
:104C4C00000010041FFC1104110017C01000080014
:104C5C00000003E00C181004100410441C780040F1
:104C6C00000010041FFC10840080008010841FFCC6
:104C7C0010040000100410041FFC100410040000A9
:104C8C00000000030001100110011FFE10001000B5
:104C9C00000010041FFC110403801464181C100481
:104CAC00000010041FFC1004000400040004000C9D
:104CBC00000010041FFC1F0000FC1F001FFC100450
:104CCC00000010041FFC0C04030000E010181FFC73
:104CDC00100007F00808100410041004080807F06E
:104CEC00000010041FFC10841080108010800F0036
:104CFC00000007F0081810241024101C080A07F2F2
:104D0C00000010041FFC1104110011C011300E0C16
:104D1C00000400000E1C11041084108410441C3874
:104D2C0000001800100010041FFC100410001800E4
:104D3C00000010001FF810040004000410041FF8F9
:104D4C00100010001E0011E0001C007013801C00ED
:104D5C0010001FC0103C00E01F0000E0103C1FC002
:104D6C0000001004180C163401C001C01634180CC5
:104D7C00100410001C00130400FC13041C00100091
:104D8C0000000804101C1064108413041C04101878
:104D9C0000000000000000007FFE400240024002C4
:104DAC000000000030000C0003800060001C0003B9
:104DBC00000000004002400240027FFE00000000A4
:104DCC0000000000000020004000400040002000D7
:104DDC0000000001000100010001000100010001C0
:104DEC000001000040004000200000000000000016
:104DFC00000000000098012401440144014400FC1F
:104E0C00000410001FFC00880104010400880070DD
:104E1C0000000000007000880104010401040088F7
:104E2C0000000000007000880104010411081FFC40
:104E3C000004000000F8014401440144014400C88E
:104E4C0000000000010401040FFC11041104110006
:104E5C001800000000D601290129012901C9010609
:104E6C00000010041FFC008401000100010400FC80
:104E7C00000400000104190419FC000400040000E3
:104E8C0000000000000300010101190119FE0000DF
:104E9C00000010041FFC0024004001B4010C0104AC
:104EAC0000000000100410041FFC000400040000AB
:104EBC000000010401FC0104010001FC01040100DB
:104ECC0000FC010401FC008401000100010400FC51
:104EDC000004000000F8010401040104010400F8BE
:104EEC000000010101FF008501040104008800702D
:104EFC00000000000070008801040104010501FF9E
:104F0C0000010104010401FC008401040100018082
:104F1C000000000000CC012401240124012401988C
:104F2C00000000000100010007F80104010400006A
:104F3C000000010001F8000400040004010801FC59
:104F4C000004010001800170000C00100160018060
:104F5C00010001F0010C003001C00030010C01F027
:104F6C00010000000104018C00740170018C01042B
:104F7C000000010101810171000E00180160018027
:104F8C00010000000184010C013401440184010C76
:104F9C000000000000000000000001003EFC400288
:104FAC0040020000000000000000FFFF00000000B5
:104FBC0000000000400240023EFC01000000000026
:104FCC0000000000600080008000400040002000D5
:104FDC002000232D302B2000686C4C006566674543
:104FEC004647003031323334353637383941424355
:104FFC004445460030313233343536373839616206
:08500C0063646566000000000A
:085014008CB2FF7F01000000D7
:04501C00B5010008D2
:0450200091010008F2
:105024000024F4000100000010000000AAAAAAAAAB
:105034001400002000000000000000000000000038
:10504400000000000000000000000000000000005C
:10505400000000000000000000000000000000004C
:10506400000000000000000000000000000000003C
:10507400000000000000000000000000000000002C
:10508400000000000000000000000000000000001C
:045094000000000018
:0400000508000DA53D
:00000001FF
